:1000000041C1000070C100006EC100006CC1000061
:100010006AC1000068C1000066C1000064C1000040
:1000200062C1000060C100005EC100005CC1000050
:100030005AC1000058C1000056C1000054C1000060
:1000400052C100000C94D3204EC100004CC10000EE
:100050004AC1000048C1000046C100000C94702550
:1000600042C100000C94E9280C941F293CC10000F7
:100070003AC1000038C1000036C1000034C10000A0
:100080000C94002130C100002EC100002CC10000E2
:100090002AC1000028C1000026C1000024C10000C0
:1000A00022C1000020C100000C942D211CC10000C1
:1000B0001AC1000018C1000016C100000C945A219A
:1000C00012C1000010C100000EC100000CC10000F0
:1000D0000AC1000008C1000006C1000004C1000000
:1000E00002C10000A726AA2699269D26A326E1265E
:1000F000AE26B226B826BC26C026C626CA26CE26DE
:10010000E126D426D826DC26084AD73B3BCE016E12
:1001100084BCBFFDC12F3D6C74319ABD56833DDA5E
:100120003D00C77F11BED9E4BB4C3E916BAAAABE6D
:10013000000000803F072C7AA5BA6CC590DA3B938B
:1001400065FC8BBC53F810FD3C5692834DBD879DDA
:100150003AB63DCBC9BF5BBE73DA0FC93F000000A2
:100160000A0B02090C0D0E08070304010000000031
:10017000000000000000000000000000000000007F
:10018000000000000000000000001211100000003C
:10019000000000000000000000000000000000005F
:1001A000000000000102102020080810204010204C
:1001B000408002010201080402010102040810202B
:1001C0004080804020100804020180040201804029
:1001D0002010080402010804020101020408102092
:1001E0004080010204081020408005050505070530
:1001F00008080808020202020A0A080804040404A3
:1002000001010101010101010303030303030303CE
:10021000040707070C0C0C0C0C0C0C0C020202025D
:1002200006060606060606060B0B0B0B0B0B0B0B46
:10023000000020002300260029002C002F0032009F
:100240000001000003010601090100002200250051
:1002500028002B002E0031003400020100000501AF
:1002600008010B0100002100240027002A002D00B6
:100270003000330001010000040107010A016E048F
:1002800051290C0511241FBECFEFD1E2DEBFCDBF37
:1002900000E00CBF1EE0A0E0B2E0ECE0F9E600E018
:1002A0000BBF02C007900D92A439B107D9F721E125
:1002B000A4E9BEE001C01D92AD37B207E1F712E03C
:1002C000C2E8D2E000E006C022970109FE010BBFA0
:1002D0000E94B231CE37D10780E00807A9F70E940B
:1002E000322E0C9475348CCECF93DF93EC01FB014E
:1002F000248135810E94E42DCE01DF91CF910895B4
:10030000EF92FF920F931F93CF93DF93CDB7DEB79A
:100310002C970FB6F894DEBF0FBECDBF7C018B01CA
:100320008091DC07882339F163E078E0CE01019603
:100330000E94AF2CB701CE0101960E949D2DB801FD
:100340000E949D2D65E078E00E94AE2DBC01CE019B
:1003500007960E940D2DCE0101960E94482CBE01E9
:10036000695F7F4F8CED90E10E94D229CE01079604
:100370000E94482C0AC0B7018CED90E10E94D2295E
:10038000B8018CED90E10E94EB292C960FB6F89401
:10039000DEBF0FBECDBFDF91CF911F910F91FF90B8
:1003A000EF900895CF92DF92EF92FF920F931F93F9
:1003B000CF93DF9300D000D0CDB7DEB78C0167E0DC
:1003C00078E00E94C62D882331F0E090FB07F09082
:1003D000FC07D12C3CC06EE078E0C8010E94C62D1D
:1003E000882369F06091F5077091F6078091F7070F
:1003F0009091F8070E94472F7B01D12C37C065E10F
:1004000078E0C8010E94C62D882369F06091F10749
:100410007091F2078091F3079091F4070E94472FA3
:100420007B01D12C39C06CE178E0C8010E94C62D57
:10043000882379F06091ED077091EE078091EF07C6
:100440009091F0070E94472F7B01DD24D394C12CAB
:1004500025C063E278E0C8010E94C62D882349F0D8
:10046000E090F907F090FA07DD24D39496E0C92EC6
:1004700015C06AE278E0C8010E94C62D882371F099
:10048000E090DA07F090DB078091F9079091FA0786
:10049000E81AF90ADD24D3948CE0C82E4D2D6C2D7A
:1004A00086E99FE00E94AE2426E030E045E050E07F
:1004B000B801CE0101960E94E42DBE016F5F7F4F0F
:1004C00086E99FE00E94D229CE0101960E94482C25
:1004D0004D2D61E06C0D86E99FE00E94AE2484E61C
:1004E000E816F104F4F46FEA79E086E99FE00E94EF
:1004F000E0294D2D62E06C0D86E99FE00E94AE245C
:100500008AE0E816F1046CF46FEA79E086E99FE08E
:100510000E94E02963E06C0D4D2D86E99FE00E946A
:10052000AE244AE050E0B70186E99FE00E949F2A8E
:1005300026960FB6F894DEBF0FBECDBFDF91CF91E8
:100540001F910F91FF90EF90DF90CF9008950F9340
:100550001F93CF93DF9300D000D0CDB7DEB761E01B
:1005600082E30E94E22661E083E30E94E22661E0EA
:1005700082E30E941B2761E083E30E941B2761E066
:1005800088E20E94E22660E088E20E941B2761E088
:1005900089E20E94E22660E089E20E941B2720E0B7
:1005A00042E060E186E99FE00E94C62420E042E04C
:1005B00064E18EE79FE00E94C62486E99FE00E94E6
:1005C000A9248EE79FE00E94A92462E070E087E7FB
:1005D0009FE00E94502263E070E081E79FE00E946C
:1005E000502264E070E08BE69FE00E94502265E0BC
:1005F00070E085E69FE00E94502266E070E08FE5A3
:100600009FE00E94502267E070E089E59FE00E9431
:10061000502201EE17E06091FB077091FC0720E08B
:10062000F801408187E79FE00E94F1236091F50780
:100630007091F6078091F7079091F8070E94472F75
:1006400020E0F801408181E79FE00E94F123609162
:10065000F1077091F2078091F3079091F4070E94DF
:10066000472F20E0F80140818BE69FE00E94F123B4
:100670006091FD077091FE07882777FD8095982F80
:100680000E947A2F2091ED073091EE074091EF07FD
:100690005091F0070E944F2E0E94472F20E0F80152
:1006A000408185E69FE00E94F1236091F9077091F7
:1006B000FA0720E0F80140818FE59FE00E94F123D6
:1006C0006091DA077091DB078091F9079091FA0742
:1006D000681B790B20E0F801408189E59FE00E94CA
:1006E000F12367E078E0CE0101960E94AF2CCE01A5
:1006F000019658DECE0101960E94482C6EE078E00B
:10070000CE0101960E94AF2CCE0101964BDECE01A8
:1007100001960E94482C65E178E0CE0101960E9486
:10072000AF2CCE0101963EDECE0101960E94482CF0
:100730006CE178E0CE0101960E94AF2CCE010196CB
:1007400031DECE0101960E94482C63E278E0CE01B2
:1007500001960E94AF2CCE01019624DECE010196B7
:100760000E94482C6AE278E0CE0101960E94AF2CEC
:10077000CE01019617DECE0101960E94482C61E35E
:1007800078E08FEF9EE00E94202D26E040E855E2C1
:1007900060E070E08CED90E10E94872826960FB60D
:1007A000F894DEBF0FBECDBFDF91CF911F910F91A7
:1007B0000895FF920F931F93CF93DF93EC018B016A
:1007C0006BE378E00E94C62D811116C06DE378E0DE
:1007D000CE010E94C62D81110FC06AE478E0CE01DF
:1007E0000E94C62D81115BC06FE378E0CE010E94AC
:1007F000C62D811154C05BC06CE478E0CE010E942C
:10080000202DF12C40E06F2D8EE79FE00E94AE245A
:10081000BE018EE79FE00E94D22940E062E06F0DAA
:100820008EE79FE00E94AE240F3F8FEF180759F428
:1008300066E478E08EE79FE0DF91CF911F910F9102
:10084000FF900C94E02904361105ECF46FEA79E08E
:100850008EE79FE00E94E02940E063E06F0D8EE7A5
:100860009FE00E94AE240A3011056CF46FEA79E033
:100870008EE79FE00E94E02964E06F0D40E08EE784
:100880009FE00E94AE244AE050E0B8018EE79FE06E
:10089000DF91CF911F910F91FF900C949F2A6FE4ED
:1008A00078E0CE010E94202D26E0F22EABCF62E54B
:1008B00078E0CE010E94C62D811108C061E478E085
:1008C000CE010E94C62D882309F49CCF63E478E012
:1008D000CE010E94202D3CE0F32E94CFCF92EF92D8
:1008E0000F9346E1C42E58E1E52E0AE12CE14EE1DA
:1008F00060E286E99FE00E944C2567E1C62E79E11F
:10090000E72E0BE12DE14FE161E28EE79FE00E94CF
:100910004C2587E79FE00E94872181E79FE00E94A6
:1009200087218BE69FE00E94872185E69FE00E9459
:1009300087218FE59FE00E94872189E59FE00E9443
:1009400087218091ED079091EE07A091EF07B0917C
:10095000F0078093490F90934A0FA0934B0FB093E9
:100960004C0F8093450F9093460FA093470FB09381
:10097000480F66E87EE08FEF9EE00E94AF2C66E8AD
:100980007EE089EF9EE00E94AF2C66E87EE083EF78
:100990009EE00E94AF2C66E87EE08DEE9EE00E9415
:1009A000AF2C66E87EE087EE9EE00E94AF2C66E802
:1009B0007EE081EE9EE00E94AF2C66E87EE08BED4B
:1009C0009EE00E94AF2C66E87EE085ED9EE00E94EE
:1009D000AF2C66E87EE08FEC9EE00E94AF2C809109
:1009E000E1079091E2079093C00E8093BF0E64E5FB
:1009F00078E084EB9EE00E94AF2C66E87EE08AEA15
:100A00009EE00E94AF2C66E87EE084EA9EE00F91B3
:100A1000EF90CF900C94AF2C84EA9EE00E94482C7B
:100A20008AEA9EE00E94482C84EB9EE00E94482CBB
:100A30008FEC9EE00E94482C85ED9EE00E94482CA1
:100A40008BED9EE00E94482C81EE9EE00E94482C97
:100A500087EE9EE00E94482C8DEE9EE00E94482C7E
:100A600083EF9EE00E94482C89EF9EE00E94482C74
:100A70008FEF9EE00C94482C2F923F924F925F9202
:100A80006F927F928F929F92AF92BF92CF92DF929E
:100A9000EF92FF920F931F93CF93DF93CDB7DEB703
:100AA000A6970FB6F894DEBF0FBECDBF8CED90E1D8
:100AB0000E947827892B91F06CED70E1CE010196B0
:100AC0000E94EC2BBE016F5F7F4F8FEF9EE00E9474
:100AD000152DCE0101960E94482CE8CF25E030E08C
:100AE00043E050E06FEF7EE0CE0101960E94E42DDE
:100AF00069E578E0CE0101960E94C62D182FCE013F
:100B000001960E94482C1123E1F11092BB0E81E066
:100B10008093BA0E26E030E045E050E06FEF7EE0D3
:100B2000CE0101960E94E42D6CE578E0CE0101969D
:100B30000E94C62D182FCE0101960E94482C112329
:100B400019F06EE578E03FC226E030E045E050E085
:100B50006FEF7EE0CE0101960E94E42D69E678E019
:100B6000CE0101960E94C62D182FCE0101960E943B
:100B7000482C112319F06BE678E025C266E778E08F
:100B800022C225E030E040E050E06FEF7EE0CE0191
:100B900001960E94E42D60E878E0CE0101960E9463
:100BA000C62D182FCE0101960E94482C112319F052
:100BB00066E878E008C223E030E040E050E06FEF04
:100BC0007EE0CE0101960E94E42D6FE878E0CE0130
:100BD00001960E94C62D182FCE0101960E94482C26
:100BE000112319F063E978E0EEC125E030E043E03D
:100BF00050E06FEF7EE0CE0101960E94E42D6AE99D
:100C000078E0CE0101960E94C62D182FCE010196E4
:100C10000E94482C1123B9F126E030E045E050E075
:100C20006FEF7EE0CE0101960E94E42D6CE578E046
:100C3000CE0101960E94C62D182FCE0101960E946A
:100C4000482C112319F06DE978E0BDC126E030E0B1
:100C500045E050E06FEF7EE0CE0101960E94E42D6A
:100C600069E678E0CE0101960E94C62D182FCE01CC
:100C700001960E94482C112319F066EA78E0A3C17E
:100C80006FEA78E0A0C125E030E040E050E06FEF8F
:100C90007EE0CE0101960E94E42D67EB78E0CE0164
:100CA00001960E94C62D182FCE0101960E94482C55
:100CB000112319F06DEB78E086C123E030E040E0CD
:100CC00050E06FEF7EE0CE0101960E94E42D66ECCD
:100CD00078E0CE0101960E94C62D182FCE01019614
:100CE0000E94482C112319F06AEC78E06CC125E0D1
:100CF00030E043E050E06FEF7EE0CE0101960E94CD
:100D0000E42D61ED78E0CE0101960E94C62D182FEA
:100D1000CE0101960E94482C112341F01092BB0E87
:100D200081E08093BA0E64ED78E04DC125E030E0BB
:100D300040E050E06FEF7EE0CE0101960E94E42D8E
:100D40006DED78E0CE0101960E94C62D182FCE01E0
:100D500001960E94482C112319F06DED78E033C103
:100D600023E030E040E050E06FEF7EE0CE010196FE
:100D70000E94E42D63EE78E0CE0101960E94C62D1C
:100D8000182FCE0101960E94482C112319F067EE0E
:100D900078E019C126E030E040E050E06FEF7EE0FF
:100DA000CE0101960E94E42D6EEE78E0CE01019610
:100DB0000E94C62D182FCE0101960E94482C1123A7
:100DC00099F18FEA90E09093FC078093FB0720E075
:100DD00042E16FEA70E087E79FE00E94F12367E05D
:100DE00078E0CE0101960E94AF2CCE010196DADAAE
:100DF000CE0101960E94482C6BE378E0CE0101966B
:100E00000E94AF2C6FEF7FEFCE010196D2DCCE01B6
:100E100001960E94482C65EF78E08FEF9EE00E94DB
:100E2000202D6FEF78E0CFC024E030E040E050E0CC
:100E30006FEF7EE0CE0101960E94E42D68E079E03C
:100E4000CE0101960E94C62D182FCE0101960E9458
:100E5000482C112319F06DE079E0B5C024E030E0B2
:100E600040E050E06FEF7EE0CE0101960E94E42D5D
:100E700065E179E0CE0101960E94C62D182FCE01C2
:100E800001960E94482C112319F06AE179E09BC079
:100E900024E030E040E050E06FEF7EE0CE010196CC
:100EA0000E94E42D62E279E0CE0101960E94C62DF7
:100EB000182FCE0101960E94482C112319F067E2E9
:100EC00079E081C024E030E040E050E06FEF7EE068
:100ED000CE0101960E94E42D6FE279E0CE010196E9
:100EE0000E94C62D182FCE0101960E94482C112376
:100EF00019F064E379E067C026E030E040E050E0BC
:100F00006FEF7EE0CE0101960E94E42D6CE379E064
:100F1000CE0101960E94C62D182FCE0101960E9487
:100F2000482C112319F063E479E04DC026E030E04D
:100F300040E050E06FEF7EE0CE0101960E94E42D8C
:100F40006DE479E0CE0101960E94C62D182FCE01E6
:100F500001960E94482C112319F064E579E033C012
:100F600026E030E040E050E06FEF7EE0CE010196F9
:100F70000E94E42D6EE579E0CE0101960E94C62D17
:100F8000182FCE0101960E94482C112319F065E616
:100F900079E019C026E030E040E050E06FEF7EE0FD
:100FA000CE0101960E94E42D6FE679E0CE01019614
:100FB0000E94C62D182FCE0101960E94482C1123A5
:100FC00031F066E779E084EB9EE00E94202D25E079
:100FD00030E040E050E06FEF7EE0CE0101960E94ED
:100FE000E42D60E879E0CE0101960E94C62D182F0D
:100FF000CE0101960E94482C112309F4D9C066E85D
:1010000079E0CE0101960E94AF2C66E87EE0CE0129
:1010100007960E94AF2CBE016F5F7F4FCE010796EF
:101020006FD9CE0107960E94482CCE0101960E94EE
:10103000482C6091E5077091E6078091E707909151
:10104000E8070E944C2F6B017C0160932D0F709379
:101050002E0F80932F0F9093300F6091E3077091C4
:10106000E407882777FD8095982F0E947A2F20919A
:10107000E9073091EA074091EB075091EC070E9495
:101080004F2E0E944C2F6093290F70932A0F80934C
:101090002B0F90932C0F6AE478E0CE0101960E940A
:1010A000AF2CB601CE01019684DBCE0101960E94E1
:1010B000482C0091290F10912A0F62E578E0CE01AB
:1010C00001960E94AF2CB801CE01019672DBCE01D1
:1010D00001960E94482C61E378E08FEF9EE00E9429
:1010E000202D8AE590E09093FA078093F90790937A
:1010F000FC078093FB0720E04091E1076AE570E080
:1011000087E79FE00E94F12367E078E0CE01019637
:101110000E94AF2CCE01019645D9CE0101960E94C6
:10112000482C6BE378E0CE0101960E94AF2C6FEF64
:101130007FEFCE0101963DDBCE0101960E94482C47
:101140006091F9077091FA0720E04091E1078FE57F
:101150009FE00E94F12363E278E0CE0101960E94B5
:10116000AF2CCE0101961ED9CE0101960E94482CCB
:101170006091DA077091DB078091F9079091FA0787
:10118000681B790B20E04091E10789E59FE00E9410
:10119000F1236AE278E0CE0101960E94AF2CCE01E5
:1011A000019600D9CE0101960E94482C0C94091F8B
:1011B00027E030E040E050E06FEF7EE0CE010196A6
:1011C0000E94E42D61EB79E0CE0101960E94C62DCC
:1011D000182FCE0101960E94482C112309F441C01A
:1011E00048E050E06FEF7EE0CE0101967DD8BE0171
:1011F0006F5F7F4F8FEC9EE00E94152DCE01019610
:101200000E94482C8FEC9EE00E94272E6F3F7105B4
:101210008105910519F014F00C94DC1B8FEC9EE015
:101220000E94272E161617061806190614F00C949D
:10123000DC1B8FEC9EE00E94272E7093E2076093E8
:10124000E1077093BE0E6093BD0E63E17EE08CED0E
:1012500090E10E94E0296091E1077091E2070C940F
:10126000D41B27E030E040E050E06FEF7EE0CE019D
:1012700001960E94E42D69EB79E0CE0101960E946F
:10128000C62D182FCE0101960E94482C112309F477
:101290007DC048E050E06FEF7EE0CE01019624D89B
:1012A000BE016F5F7F4F8BED9EE00E94152DCE013A
:1012B00001960E94482C8BED9EE00E94272E0E94F2
:1012C0007A2F6B017C016093F5077093F60780938A
:1012D000F7079093F80720E030E044E353E40E94DE
:1012E000DB2E18160CF44EC020E030E0A901C70137
:1012F000B6010E946A3087FD45C0C701B6010E9451
:10130000472F20E04091E10781E79FE00E94F12311
:101310006EE078E0CE0101960E94AF2CCE010196DE
:1013200041D8CE0101960E94482C6AE478E0CE01B3
:1013300001960E94AF2C6FEF7FEFCE01019639DA54
:10134000CE0101960E94482C62E578E0CE0101961C
:101350000E94AF2C6FEF7FEFCE0101962ADACE010B
:1013600001960E94482C61EC79E08CED90E10E949E
:10137000E0294091F5075091F6076091F7077091C9
:10138000F80797C06AEC79E00C94DE1B26E030E0A9
:1013900040E050E06FEF7EE0CE0101960E94E42D28
:1013A0006DEE79E0CE0101960E94C62D182FCE0178
:1013B00001960E94482C112309F486C047E050E0B2
:1013C0006FEF7EE0CE0101960E947401BE016F5F57
:1013D0007F4F85ED9EE00E94152DCE0101960E9463
:1013E000482C85ED9EE00E94272E0E947A2F6B01EB
:1013F0007C016093F1077093F2078093F307909359
:10140000F40720E030E04DE153E40E94DB2E181693
:101410000CF456C020E030E040EC51E4C701B601C6
:101420000E946A3087FD4CC0C701B6010E94472F59
:1014300020E04091E1078BE69FE00E94F12365E107
:1014400078E0CE0101960E94AF2CCE0101960E9459
:10145000D201CE0101960E94482C6AE478E0CE01C8
:1014600001960E94AF2C6FEF7FEFCE010196A1D9BC
:10147000CE0101960E94482C62E578E0CE010196EB
:101480000E94AF2C6FEF7FEFCE01019692D9CE0173
:1014900001960E94482C64EF79E08CED90E10E9467
:1014A000E0294091F1075091F2076091F3077091A4
:1014B000F40722E030E08CED90E10E94B02BD8C51B
:1014C0006CEF79E00C94DE1B24E030E040E050E06B
:1014D0006FEF7EE0CE0101960E94E42D6FE17AE08D
:1014E000CE0101960E94C62D182FCE0101960E94B2
:1014F000482C112309F466C045E050E06FEF7EE010
:10150000CE0101960E947401BE016F5F7F4F8DEE88
:101510009EE00E94152DCE0101960E94482C8DEE72
:101520009EE00E94272E7093FA076093F9079B01B3
:10153000225531092233310508F040C020E04091A6
:10154000E1078FE59FE00E94F12363E278E0CE019E
:1015500001960E94AF2CCE0101960E94D201CE01CD
:1015600001960E94482C6091DA077091DB07809108
:10157000F9079091FA07681B790B20E04091E10789
:1015800089E59FE00E94F1236AE278E0CE010196AE
:101590000E94AF2CCE0101960E94D201CE0101968D
:1015A0000E94482C64E27AE08CED90E10E94E029F0
:1015B0006091F9077091FA070C94D41B63E37AE009
:1015C0000C94DE1B24E030E040E050E06FEF7EE062
:1015D000CE0101960E94E42D6CE57AE0CE010196E1
:1015E0000E94C62D182FCE0101960E94482C11236F
:1015F00009F474C045E050E06FEF7EE0CE01019643
:101600000E947401BE016F5F7F4F87EE9EE00E94D3
:10161000152DCE0101960E94482C87EE9EE00E9477
:10162000272E7093FC076093FB079B012F50310915
:10163000213A310508F04EC020E04091E10787E7EC
:101640009FE00E94F12367E078E0CE0101960E94BE
:10165000AF2CCE0101960E94D201CE0101960E94CC
:10166000482C6BE378E0CE0101960E94AF2C6FEF1F
:101670007FEFCE0101969DD8CE0101960E94482CA5
:101680006AE478E0CE0101960E94AF2C6FEF7FEF05
:10169000CE0101968ED8CE0101960E94482C62E5BB
:1016A00078E0CE0101960E94AF2C6FEF7FEFCE0164
:1016B00001967FD8CE0101960E94482C61E67AE01F
:1016C0008CED90E10E94E0296091FB077091FC078E
:1016D0000C94D41B61E77AE00C94DE1B24E030E02C
:1016E00040E050E06FEF7EE0CE0101960E94E42DD5
:1016F0006CE97AE0CE0101960E94C62D182FCE012A
:1017000001960E94482C112309F46DC045E050E079
:101710006FEF7EE0CE0101960E947401BE016F5F03
:101720007F4F81EE9EE00E94152DCE0101960E9412
:10173000482C81EE9EE00E94272E0E947A2F6B019A
:101740007C016093ED077093EE078093EF07909311
:10175000F00720E030E044E352E40E946A3087FD65
:101760003EC020E030E044E353E4C701B6010E94EC
:10177000DB2E1816A4F1C701B6010E94472F20E006
:101780004091E10785E69FE00E94F1236CE178E05B
:10179000CE0101960E94AF2CCE0101960E94D2018B
:1017A000CE0101960E94482C61EA7AE08CED90E12E
:1017B0000E94E0294091ED075091EE076091EF07FC
:1017C0007091F00722E030E08CED90E10E94B02BA8
:1017D00067EA7AE08CED90E10E94E02949C468EB69
:1017E0007AE00C94DE1B24E030E040E050E06FEF44
:1017F0007EE0CE0101960E94E42D69ED7AE0CE01F3
:1018000001960E94C62D182FCE0101960E94482CE9
:10181000112309F42AC185E690E09093FA0780939A
:10182000F90720E04091E10765E670E08FE59FE071
:101830000E94F12363E278E0CE0101960E94AF2C72
:10184000CE0101960E94D201CE0101960E94482C41
:101850006091DA077091DB078091F9079091FA07A0
:10186000681B790B20E04091E10789E59FE00E9429
:10187000F1236AE278E0CE0101960E94AF2CCE01FE
:1018800001960E94D201CE0101960E94482C8091BF
:10189000BB0E882381F06EED7AE08CED90E10E9422
:1018A000E0296091F9077091FA074AE050E08CED69
:1018B00090E10E94A62A25E030E040E050E06FEF82
:1018C0007EE0CE0101960E94E42D64EF7AE0CE0125
:1018D00001960E94C62D882319F01091BA0E01C0FE
:1018E00010E0CE0101960E94482C112319F06AEFF6
:1018F0007AE0A5C325E030E040E050E06FEF7EE005
:10190000CE0101960E94E42D62E07BE0CE010196BB
:101910000E94C62D882319F01091BA0E01C010E064
:10192000CE0101960E94482C112319F068E07BE05B
:1019300086C326E030E040E050E06FEF7EE0CE016D
:1019400001960E94E42D60E17BE0CE0101960E94A9
:10195000C62D882319F01091BA0E01C010E0CE01F7
:1019600001960E94482C112319F067E17BE067C3C0
:1019700026E030E040E050E06FEF7EE0CE010196DF
:101980000E94E42D60E27BE0CE0101960E94C62D0C
:10199000882319F01091BA0E01C010E0CE01019613
:1019A0000E94482C112319F067E27BE048C326E02F
:1019B00030E040E050E06FEF7EE0CE0101960E9403
:1019C000E42D60E37BE0CE0101960E94C62D8823C2
:1019D00019F01091BA0E01C010E0CE0101960E94DC
:1019E000482C112319F067E37BE029C326E030E09F
:1019F00040E050E06FEF7EE0CE0101960E94E42DC2
:101A000060E47BE0CE0101960E94C62D882319F088
:101A10001091BA0E01C010E0CE0101960E94482C30
:101A2000112319F067E47BE00AC326E030E040E0D0
:101A300050E06FEF7EE0CE0101960E94E42D60E55C
:101A40007BE0CE0101960E94C62D882319F01091EB
:101A5000BA0E01C010E0CE0101960E94482C11235D
:101A600009F406C367E57BE0EAC225E030E040E028
:101A700050E06FEF7EE0CE0101960E94E42D60E61B
:101A80007BE0CE0101960E94C62D182FCE01019653
:101A90000E94482C112309F4CDC083E590E0909377
:101AA000FA078093F90720E04091E10763E570E0D1
:101AB0008FE59FE00E94F12363E278E0CE0101967A
:101AC0000E94AF2CCE0101960E94D201CE01019658
:101AD0000E94482C6091DA077091DB078091F9072A
:101AE0009091FA07681B790B20E04091E10789E5A6
:101AF0009FE00E94F1236AE278E0CE0101960E9405
:101B0000AF2CCE0101960E94D201CE0101960E9417
:101B1000482C8091BB0E882381F066E67BE08CED3B
:101B200090E10E94E0296091F9077091FA074AE07C
:101B300050E08CED90E10E94A62A26E030E040E0E3
:101B400050E06FEF7EE0CE0101960E94E42D6CE73D
:101B50007BE0CE0101960E94C62D882319F01091DA
:101B6000BA0E01C010E0CE0101960E94482C11234C
:101B700019F063E87BE063C226E030E040E050E02B
:101B80006FEF7EE0CE0101960E94E42D6BE87BE0D2
:101B9000CE0101960E94C62D882319F01091BA0E2D
:101BA00001C010E0CE0101960E94482C112319F0CB
:101BB00062E97BE044C227E030E040E050E06FEFB4
:101BC0007EE0CE0101960E94E42D6AE97BE0CE0121
:101BD00001960E94C62D882319F01091BA0E01C0FB
:101BE00010E0CE0101960E94482C112319F062EA00
:101BF0007BE025C227E030E040E050E06FEF7EE080
:101C0000CE0101960E94E42D6BEA7BE0CE010196A5
:101C10000E94C62D882319F01091BA0E01C010E061
:101C2000CE0101960E94482C112309F421C263EBD6
:101C30007BE005C227E030E040E050E06FEF7EE05F
:101C4000CE010D960E94E42D6CEB7BE0CE010D964B
:101C50000E94C62D811131C027E030E040E050E005
:101C60006FEF7EE0CE0107960E94E42D64EC7BE0EE
:101C7000CE0107960E94C62D811119C026E030E0E2
:101C800040E050E06FEF7EE0CE0101960E94E42D2F
:101C90006CEC7BE0CE0101960E94C62D11E0811113
:101CA00001C010E0CE0101960E94482C01C011E055
:101CB000CE0107960E94482C01C011E0CE010D967E
:101CC0000E94482C1123C9F089E20E94502721E08C
:101CD000892B09F420E020937D0F222359F060E046
:101CE00082E30E941B2760E083E30E941B2763EDD1
:101CF0007BE0A5C167EE7BE0A2C128E030E040E0D8
:101D000050E06FEF7EE0CE010D960E94E42D6AE078
:101D10007CE0CE010D960E94C62D811131C028E0D5
:101D200030E040E050E06FEF7EE0CE0107960E9489
:101D3000E42D63E17CE0CE0107960E94C62D81115F
:101D400019C027E030E040E050E06FEF7EE0CE01C8
:101D500001960E94E42D6CE17CE0CE0101960E9488
:101D6000C62D11E0811101C010E0CE0101960E9444
:101D7000482C01C011E0CE0107960E94482C01C0FA
:101D800011E0CE010D960E94482C112359F061E01C
:101D900082E30E941B2761E083E30E941B2764E229
:101DA0007CE04DC128E030E040E050E06FEF7EE0A5
:101DB000CE010D960E94E42D69E37CE0CE010D96E4
:101DC0000E94C62D811131C028E030E040E050E093
:101DD0006FEF7EE0CE0107960E94E42D62E47CE086
:101DE000CE0107960E94C62D811119C027E030E070
:101DF00040E050E06FEF7EE0CE0101960E94E42DBE
:101E00006BE47CE0CE0101960E94C62D11E08111A9
:101E100001C010E0CE0101960E94482C01C011E0E3
:101E2000CE0107960E94482C01C011E0CE010D960C
:101E30000E94482C112359F061E088E20E941B2780
:101E400061E089E20E941B2769E37CE0F8C029E099
:101E500030E040E050E06FEF7EE0CE010D960E9452
:101E6000E42D63E57CE0CE010D960E94C62D811124
:101E700031C029E030E040E050E06FEF7EE0CE017D
:101E800007960E94E42D6DE57CE0CE0107960E9446
:101E9000C62D811119C028E030E040E050E06FEF1E
:101EA0007EE0CE0101960E94E42D67E67CE0CE0143
:101EB00001960E94C62D11E0811101C010E0CE01F3
:101EC00001960E94482C01C011E0CE0107960E94A5
:101ED000482C01C011E0CE010D960E94482C112320
:101EE00059F060E088E20E941B2760E089E20E94CE
:101EF0001B2763E57CE0A3C027E030E040E050E032
:101F00006FEF7EE0CE010D960E94E42D60E77CE04D
:101F1000CE010D960E94C62D811131C027E030E020
:101F200040E050E06FEF7EE0CE0107960E94E42D86
:101F300068E77CE0CE0107960E94C62D811119C08A
:101F400026E030E040E050E06FEF7EE0CE01019609
:101F50000E94E42D60E87CE0CE0101960E94C62D2F
:101F600011E0811101C010E0CE0101960E94482CC1
:101F700001C011E0CE0107960E94482C01C011E07B
:101F8000CE010D960E94482C112341F081E08093F0
:101F9000BB0E1092DC0760E77CE051C028E030E027
:101FA00040E050E06FEF7EE0CE010D960E94E42D00
:101FB00067E87CE0CE010D960E94C62D811131C0EC
:101FC00028E030E040E050E06FEF7EE0CE01079681
:101FD0000E94E42D60E97CE0CE0107960E94C62DA8
:101FE000811119C027E030E040E050E06FEF7EE063
:101FF000CE0101960E94E42D69E97CE0CE010196B4
:102000000E94C62D11E0811101C010E0CE010196A1
:102010000E94482C01C011E0CE0107960E94482C76
:1020200001C011E0CE010D960E94482C112341F110
:102030001092BB0E81E08093DC0767E87CE0CE0164
:1020400001960E94AF2C66E87EE0CE0107960E94C2
:10205000AF2CBE016F5F7F4FCE0107960E948001BB
:10206000CE0107960E94482CCE0101960E94482C72
:1020700066E87EE08FEF9EE00E94202D0C94091F01
:1020800021E030E040E050E06FEF7EE0CE010D96C1
:102090000E94E42D61EA7CE0CE010D960E94C62DDF
:1020A00081110C94061F21E030E040E050E06FEF1A
:1020B0007EE0CE0149960E94E42D63EA7CE0CE01E9
:1020C00049960E94C62D811131C022E030E040E0E7
:1020D00050E06FEF7EE0CE0107960E94E42D65EAA6
:1020E0007CE0CE0107960E94C62D811119C024E024
:1020F00030E040E050E06FEF7EE0CE0101960E94BC
:10210000E42D68EA7CE0CE0101960E94C62D11E024
:10211000811101C010E0CE0101960E94482C01C03F
:1021200011E0CE0107960E94482C01C011E0CE01BB
:1021300049960E94482CCE010D960E94482C1123EE
:1021400011F40C94091F21E030E040E050E06FEF03
:102150007EE0CE0107960E94E42D61EA7CE0CE018C
:1021600007960E94C62D811119C021E030E040E0A1
:1021700050E06FEF7EE0CE0101960E94E42D63EA0D
:102180007CE0CE0101960E94C62D11E0811101C0B4
:1021900010E0CE0101960E94482C01C011E0CE0152
:1021A00007960E94482C112309F429C121E030E050
:1021B00040E050E06FEF7EE0CE0101960E94E42DFA
:1021C00061EA7CE0CE0101960E94C62D182FCE0157
:1021D00001960E94482C112309F468C024E030E0E5
:1021E00041E050E06FEF7EE0CE0101960E94E42DC9
:1021F000BE016F5F7F4F89EF9EE00E94152DCE01DB
:1022000001960E94482C28E030E045E050E06FEF56
:102210007EE0CE0101960E94E42DBE016F5F7F4FEC
:1022200083EF9EE00E94152DCE0101960E94482C5E
:1022300089EF9EE00E94272E7093340F6093330F36
:1022400083EF9EE00E94272E7093320F6093310F30
:102250000091330F1091340F222717FD2095322F54
:1022600000932D0F10932E0F20932F0F3093300FCC
:10227000CB01AA2797FDA095BA2F8093290F9093A1
:102280002A0FA0932B0FB0932C0F86399105A1052F
:10229000B10560F486E990E0A0E0B0E08093290FFA
:1022A00090932A0FA0932B0FB0932C0F2CE030E0CB
:1022B0004BE050E06FEF7EE0CE0107960E94E42DE8
:1022C0006DEF78E0CE0107960E94C62D811119C0EE
:1022D00024E030E043E050E06FEF7EE0CE01019675
:1022E0000E94E42D6DEA7CE0CE0101960E94C62D8D
:1022F00011E0811101C010E0CE0101960E94482C2E
:1023000001C011E0CE0107960E94482C112309F468
:102310002FC18091BB0E882331F06FEA7CE08CEDF9
:1023200090E10E94FB292CE030E04BE050E06FEFA1
:102330007EE0CE0101960E94E42D6DEF78E0CE01A3
:1023400001960E94C62D182FCE0101960E94482C9E
:10235000112329F02AE030E049E050E01BC024E0DE
:1023600030E043E050E06FEF7EE0CE0101960E9446
:10237000E42D6DEA7CE0CE0101960E94C62D182F57
:10238000CE0101960E94482C1123A9F022E030E0F2
:1023900041E050E06FEF7EE0CE0101960E94E42D17
:1023A000BE016F5F7F4F8AEA9EE00E94152DCE012D
:1023B00001960E94482C8091BB0E882361F06AEC44
:1023C0007CE08CED90E10E94E0296AEA7EE08CEDF1
:1023D00090E10E94EB2969ED7CE08AEA9EE00E9490
:1023E000C62D81110C94E41B6CE078E08AEA9EE033
:1023F0000E94C62D81110C94E41B0C94511E8091F7
:102400002D0F90912E0FA0912F0FB091300F892B8F
:102410008A2B8B2B91F46091E5077091E6078091F0
:10242000E7079091E8070E944C2F60932D0F70935F
:102430002E0F80932F0F9093300F22E030E040E07A
:1024400050E06FEF7EE0CE0101960E94E42D65EA38
:102450007CE0CE0101960E94C62D182FCE01019678
:102460000E94482C112319F181E08093C20E86EE60
:1024700090E0A0E0B0E08093290F90932A0FA09302
:102480002B0FB0932C0F8091DF079091E007909372
:10249000E2078093E1078091BB0E882309F468C0AE
:1024A00066E07DE08CED90E10E94E02939C024E0F7
:1024B00030E040E050E06FEF7EE0CE0101960E94F8
:1024C000E42D68EA7CE0CE0101960E94C62D182F0B
:1024D000CE0101960E94482C112309F449C081E0E5
:1024E0008093C10E8EE990E0A0E0B0E08093290FC8
:1024F00090932A0FA0932B0FB0932C0F8091DF079E
:102500009091E0079093E2078093E1078091BB0EE2
:10251000882371F167E17DE08CED90E10E94FB2959
:102520006CEF7CE08CED90E10E94E02940912D0F52
:1025300050912E0F60912F0F7091300F2AE030E0F4
:102540008CED90E10E94BC2A6BE07DE08CED90E187
:102550000E94E0294091290F50912A0F60912B0F82
:1025600070912C0F2AE030E08CED90E10E94C82A97
:102570004090190F50901A0F60901B0F70901C0F15
:1025800020E030E0A901C301B2010E94DB2E8823C4
:1025900031F18090150F9090160FA090170FB0900A
:1025A000180F20E030E0A901C501B4010E94DB2E24
:1025B0008823A9F08091110F9091120FA091130F11
:1025C000B091140F8F8F98A3A9A3BAA320E030E095
:1025D000A901BC01CD010E94DB2E81116CC0C0900D
:1025E0002D0FD0902E0FE0902F0FF090300FC701DD
:1025F000B6010E94782F6093190F70931A0F809381
:102600001B0F90931C0F6AE478E0CE0101960E94A4
:10261000AF2CB601CE0101960E94D903CE010196DE
:102620000E94482CC090290FD0902A0FE0902B0FC9
:10263000F0902C0FC701B6010E94782F6093150F00
:102640007093160F8093170F9093180F62E578E040
:10265000CE0101960E94AF2CB601CE0101960E94D8
:10266000D903CE0101960E94482C0091FB071091DE
:10267000FC07B801882777FD8095982F0E947A2F54
:102680006093110F7093120F8093130F9093140F98
:102690006EE17DE0CE0101960E94AF2CB801CE0123
:1026A00001960E94D903CE0101960E94482C81E038
:1026B0008093BC0E5CC06091DD077091DE078827B7
:1026C00077FD8095982F0E947A2F6B017C01609195
:1026D0002D0F70912E0F80912F0F9091300F0E942F
:1026E000782FA30192010E944E2EA70196010E940D
:1026F000DF2E6093250F7093260F8093270F909302
:10270000280F6091290F70912A0F80912B0F9091C3
:102710002C0F0E94782FA50194010E944E2EA70134
:1027200096010E94DF2E6093210F7093220F8093F9
:10273000230F9093240F6091FB077091FC0788276B
:1027400077FD8095982F0E947A2F2F8D38A149A16F
:102750005AA10E944E2EA70196010E94DF2E60937F
:102760001D0F70931E0F80931F0F9093200F00E09A
:1027700010E0B8E92B2EBAE33B2E8091DD07909153
:10278000DE07081719070CF0A8C62091250F309115
:10279000260F4091270F5091280F6091190F7091CB
:1027A0001A0F80911B0F90911C0F0E944F2E6B01EE
:1027B0007C016093190F70931A0F80931B0F9093F5
:1027C0001C0F2091210F3091220F4091230F509127
:1027D000240F6091150F7091160F8091170F909133
:1027E000180F0E944F2E6093150F7093160F809351
:1027F000170F9093180F20911D0F30911E0F4091CD
:102800001F0F5091200F6091110F7091120F809146
:10281000130F9091140F0E944F2E6093110F70931D
:10282000120F8093130F9093140FC701B6010E94EB
:10283000472F6B017C01CB01AA2797FDA095BA2FEA
:1028400080930D0F90930E0FA0930F0FB093100F66
:102850006AE478E0CE0101960E94AF2CB601CE0169
:1028600001960E94D903CE0101960E94482C6091E6
:10287000150F7091160F8091170F9091180F0E94ED
:10288000472FCB01AA2797FDA095BA2F8093090F58
:1028900090930A0FA0930B0FB0930C0F6091110F40
:1028A0007091120F8091130F9091140F0E94472F77
:1028B000CB01AA2797FDA095BA2F8093050F90937F
:1028C000060FA093070FB093080F8091DD0790913A
:1028D000DE070197081719070CF43FC0C0902D0FB1
:1028E000D0902E0FE0902F0FF090300FC0920D0F70
:1028F000D0920E0FE0920F0FF092100F6AE478E082
:10290000CE0101960E94AF2CB601CE0101960E9425
:10291000D903CE0101960E94482C8091290F9091F5
:102920002A0FA0912B0FB0912C0F8093090F909339
:102930000A0FA0930B0FB0930C0F8091FB0790919F
:10294000FC07AA2797FDA095BA2F8093050F9093B7
:10295000060FA093070FB093080F8091BB0E88233A
:10296000E1F161EF7CE08CED90E10E94E029409183
:10297000110F5091120F6091130F7091140F22E0FC
:1029800030E08CED90E10E94AF2B61E27DE08CEDB8
:1029900090E10E94E02940910D0F50910E0F60913F
:1029A0000F0F7091100F2AE030E08CED90E10E9443
:1029B000BC2A68E27DE08CED90E10E94E029409124
:1029C000090F50910A0F60910B0F70910C0F2AE0C4
:1029D00030E08CED90E10E94BC2A6091090F70916B
:1029E0000A0F80910B0F90910C0F0E94782FC090CE
:1029F0000D0FD0900E0FE0900F0FF090100FA4E687
:102A0000CA1AD108E108F108F601EE0FFF1FEE0F18
:102A1000FF1FEA5EFB4F20813181428153810E947A
:102A20004F2E0E944C2F6B017C016093090F709315
:102A30000A0F80930B0F90930C0F62E578E0CE01A4
:102A400001960E94AF2CB601CE0101960E94D903D7
:102A5000CE0101960E94482C8091BB0E8823A1F0E4
:102A60006FE27DE08CED90E10E94E0294091090F3A
:102A700050910A0F60910B0F70910C0F2AE030E01B
:102A80008CED90E10E94BC2A8091090F90910A0F71
:102A9000A0910B0FB0910C0F8C3E9105A105B105D3
:102AA00038F18BEE90E0A0E0B0E08093090F9093B6
:102AB0000A0FA0930B0FB0930C0F62E578E0CE01E4
:102AC00001960E94AF2C6BEE70E0CE0101960E9441
:102AD000D903CE0101960E94482C8091BB0E882319
:102AE00029F16BE37DE08CED90E10E94E0291EC0AE
:102AF0008091BD0E9091BE0E009721F48091BF0E83
:102B00009091C00E9093E2078093E1078091C20EEE
:102B1000811104C08091C10E882341F08091DF07AC
:102B20009091E0079093E2078093E107C090E3075C
:102B3000D090E407EE24D7FCE094FE2C6091090FBE
:102B400070910A0F80910B0F90910C0F6C197D09F9
:102B50008E099F096093410F7093420F8093430F3A
:102B60009093440F9B01AC010E9436316B017C01B4
:102B70006093350F7093360F8093370F9093380F13
:102B800080910D0F90910E0FA0910F0FB091100F2B
:102B90008F8F98A3A9A3BAA39C01AD01BC01CD015D
:102BA0000E9436316093390F70933A0F80933B0F38
:102BB00090933C0F6C0D7D1D8E1D9F1D0E94782FE4
:102BC0000E94DC302B013C0160933D0F70933E0F5F
:102BD00080933F0F9093400FC090E907D090EA0791
:102BE000E090EB07F090EC078090E5079090E60707
:102BF000A090E707B090E8079B01AC010E947530F8
:102C00006BA37CA38DA39EA3A7019601C701B60168
:102C10000E9475309B01AC016BA17CA18DA19EA18E
:102C20000E944F2E6BA37CA38DA39EA3A5019401AC
:102C3000C501B4010E9475309B01AC016BA17CA160
:102C40008DA19EA10E944E2E4B015C01A301920119
:102C5000C301B2010E944F2EA70196010E94753058
:102C60009B01AC01C501B4010E94DF2E6B017C0108
:102C70006093CB0E7093CC0E8093CD0E9093CE0EBE
:102C80006F8D78A189A19AA10E94782FA30192014A
:102C90000E94DF2E4B015C016093C70E7093C80E3B
:102CA0008093C90E9093CA0EC701B6010E94402EB0
:102CB0006B017C01C501B4010E94402E9B01AC0157
:102CC000C701B6010E944F2E6093550F7093560FA7
:102CD0008093570F9093580F20EE3EE245E652E462
:102CE0000E9475306093F5077093F6078093F7079D
:102CF0009093F8078091BB0E8823A1F06FE37DE0ED
:102D00008CED90E10E94E0294091F5075091F60783
:102D10006091F7077091F80722E030E08CED90E1C8
:102D20000E94AF2BC090E907D090EA07E090EB0734
:102D3000F090EC078091E5079091E607A091E707F6
:102D4000B091E8078F8F98A3A9A3BAA380903D0FF5
:102D500090903E0FA0903F0FB090400FA7019601BA
:102D6000C701B6010E9475302B013C012F8D38A19F
:102D700049A15AA1CA01B9010E9475309B01AC0159
:102D8000C301B2010E944F2E2B013C01A501940109
:102D9000C501B4010E9475309B01AC01C301B201B1
:102DA0000E944E2E4B015C01A7019601C701B6019E
:102DB0000E944F2E2F8D38A149A15AA10E94753033
:102DC0009B01AC01C501B4010E94DF2E0E94402E80
:102DD0006093510F7093520F8093530F9093540F41
:102DE00020EE3EE245E652E40E9475306093F10722
:102DF0007093F2078093F3079093F4078091BB0ED2
:102E00008823A1F06CE47DE08CED90E10E94E02944
:102E10004091F1075091F2076091F3077091F40728
:102E200022E030E08CED90E10E94AF2B20E030E01A
:102E30004DE153E46091F1077091F2078091F3073F
:102E40009091F4070E946A3087FD12C06BE37DE029
:102E50008CED90E10E94E02980E090E0ACE1B3E4E9
:102E60008093F1079093F207A093F307B093F407D0
:102E70008091C20E882309F12091F5073091F60761
:102E80004091F7075091F80760E070E087E893E41D
:102E90000E944E2E2091F1073091F2074091F307E6
:102EA0005091F4070E944E2E6093ED077093EE0749
:102EB0008093EF079093F00727C08091C10E811196
:102EC000DBCF21E030E040E050E06FEF7EE0CE016C
:102ED00001960E94E42D61EA7CE0CE0101960E94F9
:102EE000C62DF82ECE0101960E94482CF110C4CFB9
:102EF00080E090E0A3E3B3E48093ED079093EE07C6
:102F0000A093EF07B093F0078091BB0E882309F4DC
:102F100047C065E57DE08CED90E10E94E029C0901E
:102F2000ED07D090EE07E090EF07F090F00720E07B
:102F300030E043E353E4C701B6010E94DB2E811168
:102F400007C022E030E040E050E063E373E414C0E7
:102F50006091FD077091FE07882777FD8095982F77
:102F60000E947A2F9B01AC01C701B6010E944F2E2F
:102F7000AB01BC0122E030E08CED90E10E94AF2B70
:102F80006CE57DE08CED90E10E94E0296091FB070B
:102F90007091FC074AE050E08CED90E10E94A62A77
:102FA000C090F507D090F607E090F707F090F8078B
:102FB00020E030E044E353E4C701B6010E94DB2E79
:102FC00018160CF4B7C020E030E0A901C701B60123
:102FD0000E946A3087FDAEC0C090F107D090F20722
:102FE000E090F307F090F40720E030E04DE153E487
:102FF000C701B6010E94DB2E18160CF49BC020E01E
:1030000030E040EC51E4C701B6010E946A3087FD10
:1030100091C0C090ED07D090EE07E090EF07F090E0
:10302000F00720E030E044E353E4C701B6010E941A
:10303000DB2E18160CF47EC020E030E044E352E4AE
:10304000C701B6010E946A3087FD74C06091050F08
:103050007091060F20E04091E10787E79FE00E9412
:10306000F1236091F5077091F6078091F707909131
:10307000F8070E94472F20E04091E10781E79FE099
:103080000E94F1236EE078E0CE0101960E94AF2C01
:10309000CE0101960E94D201CE0101960E94482CD9
:1030A0006091F1077091F2078091F3079091F40716
:1030B0000E94472F20E04091E1078BE69FE00E94AD
:1030C000F12365E178E0CE0101960E94AF2CCE019C
:1030D00001960E94D201CE0101960E94482C609177
:1030E000FD077091FE07882777FD8095982F0E9435
:1030F0007A2F2091ED073091EE074091EF07509124
:10310000F0070E944F2E0E94472F20E046E485E6FC
:103110009FE00E94F1236CE178E0CE0101960E94CD
:10312000AF2CCE0101960E94D201CE0101960E94E1
:10313000482CACC163E67DE08CED90E10E94FB2958
:1031400020E04091E1076AE570E087E79FE00E9498
:10315000F12367E078E0CE0101960E94AF2CCE010A
:1031600001960E94D201CE0101960E94482C20E0D7
:103170004091E1076AE570E081E79FE00E94F1235A
:103180006EE078E0CE0101960E94AF2CCE01019650
:103190000E94D201CE0101960E94482C20E040916D
:1031A000E1076AE570E08BE69FE00E94F12365E1AC
:1031B00078E0CE0101960E94AF2CCE0101960E94CC
:1031C000D201CE0101960E94482C20E04091E107F7
:1031D0006AE570E085E69FE00E94F1236CE178E00B
:1031E000CE0101960E94AF2CCE0101960E94D20121
:1031F000CE0101960E94482C61EA7DE08CED90E1C1
:103200000E94E0294091410F5091420F6091430F7D
:103210007091440F2AE030E08CED90E10E94C82AC2
:1032200067EA7DE08CED90E10E94E0294091350F46
:103230005091360F6091370F7091380F2AE030E0CF
:103240008CED90E10E94C82A6FEA7DE08CED90E160
:103250000E94E0294091390F50913A0F60913B0F45
:1032600070913C0F2AE030E08CED90E10E94C82A7A
:1032700066EB7DE08CED90E10E94E02940913D0FEE
:1032800050913E0F60913F0F7091400F22E030E06F
:103290008CED90E10E94B02B69EC7DE08CED90E12B
:1032A0000E94E02960913D0F70913E0F80913F0F89
:1032B0009091400F9B01AC010E947530AB01BC01A5
:1032C00022E030E08CED90E10E94B02B60ED7DE0DB
:1032D0008CED90E10E94E0294091CB0E5091CC0EF4
:1032E0006091CD0E7091CE0E22E030E08CED90E139
:1032F0000E94B02B61EE7DE08CED90E10E94E02910
:103300004091C70E5091C80E6091C90E7091CA0EBF
:1033100022E030E08CED90E10E94B02B62EF7DE086
:103320008CED90E10E94E0294091550F5091560F8D
:103330006091570F7091580F22E030E08CED90E1D2
:103340000E94B02B6EEF7DE08CED90E10E94E029B1
:103350004091C30E5091C40E6091C50E7091C60E7F
:1033600022E030E08CED90E10E94B02B62E07EE044
:103370008CED90E10E94E0294091510F5091520F45
:103380006091530F7091540F22E030E08CED90E18A
:103390000E94B02B8AE590E09093FC078093FB0796
:1033A00080E090E0A4EBB2E48093F5079093F607F9
:1033B000A093F707B093F8078093F1079093F20773
:1033C000A093F307B093F4078093ED079093EE0773
:1033D000A093EF07B093F0076091E5077091E607BF
:1033E0008091E7079091E8070E944C2F6B017C01C8
:1033F00060932D0F70932E0F80932F0F9093300FAB
:103400006091E3077091E407882777FD8095982FF6
:103410000E947A2F2091E9073091EA074091EB074B
:103420005091EC070E944F2E0E944C2F6093290F61
:1034300070932A0F80932B0F90932C0F6AE478E0FF
:10344000CE0101960E94AF2CB601CE0101960E94DA
:10345000D903CE0101960E94482C0091290F1091AA
:103460002A0F62E578E0CE0101960E94AF2CB801E8
:10347000CE0101960E94D903CE0101960E94482CEC
:103480000091DD071091DE07015011092091E1073D
:103490003091E2078091DD079091DE07289FB0010F
:1034A000299F700D389F700D1124C1010E94513168
:1034B000882777FD8095982F0E94E9258091BC0E82
:1034C000882341F01092BC0E0091DD071091DE07B9
:1034D000015011090F5F1F4F50C96091FB07709198
:1034E000FC07882777FD8095982F0E947A2F60939C
:1034F000110F7093120F8093130F9093140F60911C
:103500002D0F70912E0F80912F0F9091300F0E94F0
:10351000782F6093190F70931A0F80931B0F90935D
:103520001C0F6091290F70912A0F80912B0F9091A1
:103530002C0F0E94782F6093150F7093160F8093B5
:10354000170F9093180F8091BD0E9091BE0E0097AB
:1035500021F48091BF0E9091C00E9093E20780936A
:10356000E1078091C20E882399F08091BA0E8823DA
:1035700079F021E046E463EB70E085E69FE00E948D
:10358000F1236AE070E080E090E00E94E9253EC00F
:103590008091C10E811148C02091F5073091F60746
:1035A0004091F7075091F80760E070E087E893E4F6
:1035B0000E944E2E2091F1073091F2074091F307BF
:1035C0005091F4070E944E2E6B017C016093ED0731
:1035D0007093EE078093EF079093F0076091FD07DB
:1035E0007091FE07882777FD8095982F0E947A2F8B
:1035F0009B01AC01C701B6010E944F2E0E94472FCC
:1036000020E046E485E69FE00E94F1236CE178E04B
:10361000CE0101960E94AF2CCE0101960E94D201EC
:10362000CE0101960E94482C8091BA0E882309F49D
:10363000A5C06AEC78E084EB9EE00E94C62D88234A
:10364000C9F020E04091E1076EE670E087E79FE077
:103650000E94F12367E078E0CE0101960E94AF2C32
:10366000CE0101960E94D201CE0101960E94482C03
:103670001092BA0E25E030E040E050E064EB7EE0CE
:10368000CE0101960E94E42D6DE07EE0CE01019610
:103690000E94C62D182FCE0101960E94482C11239E
:1036A00009F451C06091B00E7091B10E4AE0CE01A4
:1036B00001960E94362D6AEA7EE0CE010D960E94A8
:1036C0000D2D6CE17DE0CE0107960E94AF2CBE016E
:1036D000635F7F4FCE0107960E949D2DBE016F5FF5
:1036E0007F4F0E949D2DBC01CE0143960E940D2D5F
:1036F000CE0107960E94482CCE010D960E94482CC0
:10370000CE0101960E94482CBE016D5E7F4FCE0116
:1037100001960E940D2D64EB7EE0CE0107960E947B
:103720000D2DBE016F5F7F4FCE0107960E94800175
:10373000CE0107960E94482CCE0101960E94482C8B
:10374000CE01439619C066E87EE0CE0101960E9444
:10375000AF2C64EB7EE0CE0107960E940D2DBE01DA
:103760006F5F7F4FCE0107960E948001CE010796C2
:103770000E94482CCE0101960E94482C1092C20E45
:103780001092C10E66E87EE08FEF9EE00E94202D31
:103790008091BB0E882309F43CC366E87EE08CED83
:1037A00090E10E94FB2935C34AE050E08CED90E1A6
:1037B0000E94A62A0C94381062E27EE08CED90E123
:1037C0000E94FB290C94381083E090E09093B30E94
:1037D0008093B20E69ED7CE08AEA9EE00E94202D83
:1037E0008091BB0E882381F065EE7CE08CED90E14A
:1037F0000E94E0296091B20E7091B30E4AE050E051
:103800008CED90E10E94A62A2CE030E04BE050E0E5
:103810006FEF7EE0CE0101960E94E42D6DEF78E01F
:10382000CE0101960E94C62D182FCE0101960E944E
:10383000482C112329F02BE030E04AE050E01BC077
:1038400024E030E043E050E06FEF7EE0CE010196EF
:103850000E94E42D6DEA7CE0CE0101960E94C62D07
:10386000182FCE0101960E94482C1123A9F023E0C5
:1038700030E042E050E06FEF7EE0CE0101960E9422
:10388000E42DBE016F5F7F4F84EA9EE00E94152DFC
:10389000CE0101960E94482C84EA9EE00E94272EC9
:1038A0007093B10E6093B00E8091BB0E882381F0AF
:1038B0006AEE7CE08CED90E10E94E0296091B00E10
:1038C0007091B10E4AE050E08CED90E10E94A62A82
:1038D0006091B00E7091B10E882777FD8095982F7A
:1038E0000E947A2F20910E0430910F044091100411
:1038F000509111040E9475309B01AC01609112043B
:103900007091130480911404909115040E944F2E1D
:103910006093A00E7093A10E8093A20E9093A30EBD
:103920008091BB0E8823A1F06FEE7CE08CED90E1DE
:103930000E94E0294091A00E5091A10E6091A20E2C
:103940007091A30E22E030E08CED90E10E94B02B4C
:103950006091B20E7091B30EC0900E04D0900F041F
:10396000E0901004F090110477FD75C0882777FD72
:103970008095982F0E947A2F9B01AC01C701B60158
:103980000E9475304B015C0120E030E040E05FE3D5
:10399000C701B6010E94753020910A0430910B04D2
:1039A00040910C0450910D040E944F2E9B01AC01DC
:1039B000C501B4010E944F2E6B017C0160939C0EE7
:1039C00070939D0E80939E0E90939F0E6BE378E014
:1039D000CE0101960E94AF2CC701B6010E94472F6D
:1039E000CE0101960E94D903CE0101960E94482C77
:1039F0008091BB0E8823A1F067EF7CE08CED90E115
:103A00000E94E02940919C0E50919D0E60919E0E67
:103A100070919F0E22E030E08CED90E10E94B02B7F
:103A200020919C0E30919D0E40919E0E50919F0EC4
:103A30006091A00E7091A10E8091A20E9091A30EA4
:103A40000E94DF2E0E94B32E20EE3EE245E652E4B5
:103A50000E9475307EC060957095882777FD8095AF
:103A6000982F0E947A2F9B01AC01C701B6010E94DA
:103A700075304B015C0120E030E040E05FE3C701BE
:103A8000B6010E9475309B01AC01C501B4010E94D2
:103A90004F2E20910A0430910B0440910C04509158
:103AA0000D040E944E2E6B017C0160939C0E70935E
:103AB0009D0E80939E0E90939F0E6BE378E0CE0157
:103AC00001960E94AF2CC701B6010E94472FCE017C
:103AD00001960E94D903CE0101960E94482C809144
:103AE000BB0E8823A1F067EF7CE08CED90E10E9493
:103AF000E02940919C0E50919D0E60919E0E709118
:103B00009F0E22E030E08CED90E10E94B02B2091DE
:103B10009C0E30919D0E40919E0E50919F0E609193
:103B2000A00E7091A10E8091A20E9091A30E0E9402
:103B3000DF2E0E94B32E20EE3EE245E652E40E94C4
:103B400075309B01AC0160E070E084E393E40E9477
:103B50004E2E6B017C0160934D0F70934E0F80933E
:103B60004F0F9093500F20E030E0A9010E946A307F
:103B700020E030E040E05FE387FD05C0C701B6010B
:103B80000E944F2E04C0C701B6010E944E2E0E9413
:103B9000472F7093FC076093FB0721E030E040E083
:103BA00050E06FEF7EE0CE0101960E94E42D63EAC3
:103BB0007CE0CE0101960E94C62D182FCE01019601
:103BC0000E94482C112311F40C94B81223E030E029
:103BD0008091B20E9091B30E281B390B13E0220F87
:103BE000331F1A95E1F78091B00E9091B10E280F16
:103BF000391F21503109220F331F220F331FF901C2
:103C0000E65FFC4F60817181828193816093980EA1
:103C10007093990E80939A0E90939B0EF901E65F34
:103C2000FD4FC080D180E280F380C092940ED0928C
:103C3000950EE092960EF092970E9B01AC010E94B9
:103C400075304B015C01A7019601C701B6010E94C6
:103C500075309B01AC01C501B4010E944F2E0E943A
:103C6000DC300E944C2F60932D0F70932E0F8093A9
:103C70002F0F9093300F8091BB0E882311F40C947A
:103C8000B8126CEF7CE08CED90E10E94E02940914D
:103C90002D0F50912E0F60912F0F7091300F0C94BB
:103CA000B2126BED7CE08AEA9EE00E94C62D811183
:103CB00008C063E178E08AEA9EE00E94C62D88236E
:103CC00049F082E090E09093B30E8093B20E6BEDDA
:103CD0007CE082CD6CE578E08AEA9EE00E94C62D09
:103CE000811108C067E678E08AEA9EE00E94C62D4E
:103CF000882349F081E090E09093B30E8093B20E58
:103D00006CE578E069CD61E17EE08AEA9EE00E94A0
:103D1000C62D811108C061E278E08AEA9EE00E9427
:103D2000C62D882339F01092B30E1092B20E61E1C5
:103D30007EE052CD67E578E08AEA9EE00E94C62DDB
:103D4000811119C068E278E08AEA9EE00E94C62DDF
:103D5000811111C06AE578E08AEA9EE00E94C62DD2
:103D6000811112C06FE278E08AEA9EE00E94C62DBF
:103D700081110AC012C08FEF9FEF9093B30E809312
:103D8000B20E67E578E028CD8EEF9FEF9093B30EEB
:103D90008093B20E6AE578E01FCD6FED7CE08AEA91
:103DA0009EE00E94C62D811108C06DED7CE08AEA7C
:103DB0009EE00E94C62D882349F08DEF9FEF9093DF
:103DC000B30E8093B20E6FED7CE006CD63EE7CE027
:103DD0008AEA9EE00E94C62D811108C061EE7CE057
:103DE0008AEA9EE00E94C62D882349F08CEF9FEF5F
:103DF0009093B30E8093B20E63EE7CE0EDCC6CE456
:103E00007EE08CED90E10E94FB29EACC11E00C945D
:103E10009B10A6960FB6F894DEBF0FBECDBFDF9104
:103E2000CF911F910F91FF90EF90DF90CF90BF90B7
:103E3000AF909F908F907F906F905F904F903F904A
:103E40002F900895CF92DF92EF92FF920F931F93DE
:103E5000CF93DF936C018B017A01EC01C155D04FF8
:103E6000888187FF04C0FB011182108224C02CE0EE
:103E70002C9DC0012D9D900D11242881AC01420F75
:103E8000511D27FD5A952091AE0F30E04217530780
:103E900094F42881AC01420F511D27FD5A959A01D7
:103EA00046E0429FF001439FF00D1124ED54F04F86
:103EB000208126FD19C088818F5F88838CE08C9DCE
:103EC00090018D9D300D11248881A901480F511D4D
:103ED00087FD5A958091AE0F90E048175907ACF4D2
:103EE00088818C302CF111C02881820F911D27FD13
:103EF0009A95489FF001499FF00D1124ED54F04F21
:103F0000808160E08F7397D7D6CFF801808191814F
:103F100084349C4918F480E49CE904C0F801808151
:103F200091810496F701918380838FEF888332C15A
:103F30008881A901480F511D87FD5A95CA0146E0A5
:103F4000489FF001499FF00D1124ED54F04F8581F9
:103F5000882309F4DEC088815881B901680F711D7A
:103F600087FD7A95469FD001479FB00D1124AD542F
:103F7000B04FC901850F911D57FD9A95489FF001DB
:103F8000499FF00D1124ED54F04F13966D917C91E3
:103F900014978181928158818617970708F047C04E
:103FA0008881F901E80FF11D87FDFA95CF01489F3F
:103FB000F001499FF00D1124ED54F04FC901850F18
:103FC000911D57FD9A95489FD001499FB00D11242E
:103FD000AD54B04F15965C9181819281850F911DF2
:103FE0009283818388815881B901680F711D87FD93
:103FF0007A95469FD001479FB00D1124AD54B04F24
:10400000C901850F911D57FD9A95489FF001499F61
:10401000F00D1124ED54F04F13966D917C9114978F
:10402000818192818617970708F473C045C0888103
:10403000F901E80FF11D87FDFA95CF01489FF001C6
:10404000499FF00D1124ED54F04FC901850F911DCA
:1040500057FD9A95489FD001499FB00D1124AD544A
:10406000B04F15965C9181819281851B9109928355
:10407000818388815881B901680F711D87FD7A9508
:10408000469FD001479FB00D1124AD54B04FC901D8
:10409000850F911D57FD9A95489FF001499FF00D9E
:1040A0001124ED54F04F13966D917C9114978181FA
:1040B00092816817790768F158818881F901E80FC2
:1040C000F11D87FDFA95CF01489FF001499FF00D42
:1040D0001124ED54F04F83819481B901650F711D56
:1040E00057FD7A95469FF001479FF00D1124ED543E
:1040F000F04F928381838881B901680F711D87FD1C
:104100007A95469FF001479FF00D1124ED54F04F32
:104110001582F801808191814881B901640F711D78
:1041200047FD7A95AB0166E0649FF001659FF00D55
:104130001124ED54F04F41815281840F951FF701F6
:10414000918380838881A901480F511D87FD5A956D
:10415000649FF001659FF00D1124ED54F04F8081B4
:1041600086FF18C08881280F311D87FD3A95629F10
:10417000F001639FF00D1124ED54F04F808161E058
:104180008F73DF91CF911F910F91FF90EF90DF9090
:10419000CF9051C6DF91CF911F910F91FF90EF907B
:1041A000DF90CF9008951F920F920FB60F921124B7
:1041B0000BB60F922F933F934F935F936F937F9321
:1041C0008F939F93AF93BF93EF93FF9348E850E093
:1041D00064E870E081E090E035DEFF91EF91BF91FF
:1041E000AF919F918F917F916F915F914F913F918F
:1041F0002F910F900BBE0F900FBE0F901F90189530
:104200001F920F920FB60F9211240BB60F922F939D
:104210003F934F935F936F937F938F939F93AF934E
:10422000BF93EF93FF9348E950E064E970E082E0C8
:1042300090E008DEFF91EF91BF91AF919F918F9138
:104240007F916F915F914F913F912F910F900BBE96
:104250000F900FBE0F901F9018951F920F920FB6E0
:104260000F9211240BB60F922F933F934F935F93AE
:104270006F937F938F939F93AF93BF93EF93FF932E
:1042800048EA50E064EA70E083E090E0DBDDFF9113
:10429000EF91BF91AF919F918F917F916F915F91BE
:1042A0004F913F912F910F900BBE0F900FBE0F902B
:1042B0001F9018951F920F920FB60F9211240BB6F4
:1042C0000F922F933F934F935F936F937F938F93AF
:1042D0009F93AF93BF93EF93FF9348E251E064E263
:1042E00071E080E090E0AEDDFF91EF91BF91AF9182
:1042F0009F918F917F916F915F914F913F912F91FE
:104300000F900BBE0F900FBE0F901F901895FC01E1
:10431000A091AE0FA033B8F481E08A0F8093AE0F66
:10432000A08386E0A89FD0011124AD54B04F88EB44
:104330009BE012969C938E93119715828FEF97E0D6
:104340009483838308958FEF80830895DF92EF92A3
:10435000FF920F931F93CF93DF93EC01D62E7A0138
:1043600089018881803308F063C061E08D2D2AD5F2
:10437000888196E0899FF0011124ED54F04F2D2D96
:104380002F739081907C922B908360E272E06E1983
:104390007F0977FF02C06D5F7F4F759567957595B3
:1043A0006795698340E659E0401B510B57FF02C0F7
:1043B0004D5F5F4F55954795559547954A836CE0FE
:1043C0000E9445319CE0899FA001112420E030E04B
:1043D00096E0B901640F751F969FF001979FF00D4D
:1043E0001124ED54F04F608166FD18C02F5F3F4FE0
:1043F0002C30310571F790E08130910511F5109264
:10440000800082E0809381001092850010928400E9
:10441000B19A80916F00826080936F00E88186E09E
:10442000E89FF0011124ED54F04F80818064808377
:104430008881DF91CF911F910F91FF90EF90DF90D6
:1044400008958230910569F41092900082E0809383
:104450009100109295001092940088BB8093710097
:10446000DDCF8330910569F41092A00082E0809343
:10447000A1001092A5001092A40089BB8093720045
:10448000CDCF892B59F61092200182E08093210133
:1044900010922501109224018ABB80937300BECF35
:1044A00020E639E040E252E051CFDC01EC91E0330C
:1044B00080F511968C91119728E830E0281B31097E
:1044C00087FD3395220F331F220F331F62177307A7
:1044D00084F012968C9128E532E0281B310987FD83
:1044E0003395220F331F220F331F621773070CF40B
:1044F0009B018FB7F89496E0E99FF0011124ED54E9
:10450000F04F22503109220F331F328321838FBF96
:10451000158208954F925F926F927F92AF92BF92F1
:10452000CF92DF92EF92FF920F931F93CF93DF937F
:10453000EC01603282E078070CF041C0653B710508
:1045400014F064EB70E0898128E830E0281B310921
:1045500087FD3395220F331F220F331F5901CC24BF
:10456000B7FCC094DC2C2B0177FF02C0412C512CEE
:10457000B201882777FD8095982F2A8148E552E07F
:10458000421B510927FD5395440F551F440F551FDA
:104590002A01662457FC6094762C7F926F925F927A
:1045A0004F9214EBE12EF12C00E010E020E030E01F
:1045B000A9010E94032C0F900F900F900F90CE0135
:1045C000DF91CF911F910F91FF90EF90DF90CF90EF
:1045D000BF90AF907F906F905F904F9066CF9F920B
:1045E000AF92BF92CF92DF92EF92FF920F931F9301
:1045F000CF93DF93EC01942E442309F474C060320E
:1046000032E073070CF03EC0653B710514F064EBBB
:1046100070E0898128E830E0281B310987FD339557
:10462000220F331F220F331F5901CC24B7FCC09433
:10463000DC2C77FF02C060E070E0882777FD809572
:10464000982F2A8108E512E0021B110927FD139516
:10465000000F111F000F111F222717FD2095322F69
:104660003F932F931F930F9314EBE12EF12C00E057
:1046700010E020E030E0A9010E94032C0F900F9081
:104680000F900F90E881E033D0F5298188E890E021
:10469000821B910927FD9395880F991F880F991FF9
:1046A0006817790784F08A8128E532E0281B3109F0
:1046B00087FD3395220F331F220F331FCB0126179F
:1046C00037070CF4C9012FB7F89436E0E39FF001E7
:1046D0001124ED54F04F0297880F991F9483838320
:1046E00095822FBF0CC0DF91CF911F910F91FF904A
:1046F000EF90DF90CF90BF90AF909F900BCFDF9166
:10470000CF911F910F91FF90EF90DF90CF90BF90CE
:10471000AF909F900895DC01EC91EF3FA1F0B6E0DF
:10472000EB9FF0011124ED54F04F8181928163E001
:10473000880F991F6A95E1F774E0969587957A95A9
:10474000E1F70296089580E090E00895AF92BF925D
:10475000CF92DF92EF92FF920F931F93CF93DF934D
:10476000EC01D9DF2A8148E552E0421B510927FDBF
:104770005395440F551F440F551F7A010027F7FC2E
:104780000095102F498128E830E0241B310947FDAE
:104790003395220F331F220F331F442737FD4095D7
:1047A000542F0196BC01882777FD8095982F1F9282
:1047B0001F921F92E4EBEF93A12CB12C65010E9494
:1047C000032C0F900F900F900F90CB01DF91CF91A2
:1047D0001F910F91FF90EF90DF90CF90BF90AF901F
:1047E0000895EF92FF920F931F93CF93DF931F9241
:1047F000CDB7DEB78C017B012983F1DE298122232D
:10480000D9F080E2E81682E0F8065CF4C8019EDF89
:104810008E159F0589F065E070E080E090E0D9D1C9
:10482000F5CFC80178DF8E159F0531F065E070E0A7
:1048300080E090E0CED1F5CF0F90DF91CF911F9126
:104840000F91FF90EF900895CF93DF93EC0160E01C
:104850008E81F1D281E090E0F4D161E08E81EBD2E3
:1048600081E090E0EED160E08E81E5D284E690E0D8
:10487000DF91CF91E6C1EF92FF920F931F93CF93F9
:10488000DF938C01C0E0D0E0E62EF12CB7010C2EB6
:1048900002C0759567950A94E2F76170F801EC0F14
:1048A000FD1F8781C8D22196C430D10579F7C80190
:1048B000DF91CF911F910F91FF90EF90C5CFEF92B5
:1048C000FF920F931F93CF93DF938C01C0E0D0E052
:1048D000E62EF12CB7010C2E02C0759567950A944F
:1048E000E2F76170F801EC0FFD1F8781A4D22196D9
:1048F000C830D10579F7C801DF91CF911F910F9191
:10490000FF90EF90A1CF1F93CF93DF93EC01162F71
:10491000642F8C8190D28D818F3F11F060E08BD21B
:104920008F85612F84FF05C0CE01DF91CF911F914C
:10493000C6CF70E084E0759567958A95E1F7CE0162
:104940009ADF612FCE01DF91CF911F9194CF40E08C
:10495000DACF61E0FCDF80ED97E073C1443008F00E
:1049600043E0FC012389421710F04FEF420FFC0196
:10497000E40FF11D2489260F2068622FE8CFFC0187
:104980006089262F2460208B6C60E1CF0F931F93EA
:10499000CF93DF93EC01423018F08F8588608F87CA
:1049A0004B8B1C8A80E48D8B6E8B70E0605C7F4F3C
:1049B0006F8B222329F0413019F48F8584608F8713
:1049C00061E08C81FFD18D818F3F11F061E0FAD1E0
:1049D00061E08E81F7D100E010E08F8584FF03C095
:1049E00088E090E002C084E090E0081719074CF4DA
:1049F000FE01E00FF11F61E08781E4D10F5F1F4FDF
:104A0000ECCF80E593EC1DD160E08C8114D260E0A6
:104A10008E8111D28D818F3F11F060E00CD26F85B5
:104A200064FD16C063E0CE0126DF84E991E109D17F
:104A300063E0CE0120DF84E991E103D163E0CE01A0
:104A40001ADF86E990E0FDD062E0CE0114DF11C0EC
:104A50006062CE017CDF84E991E1F3D06F85606212
:104A6000CE0175DF86E990E0ECD06F856062CE0103
:104A70006EDF6F856062CE016ADF84E0888BCE01D5
:104A80007EDFCE0166DF82E0898B66E0CE01DF91BA
:104A9000CF911F910F915BCFCF92EF920F93FC01BB
:104AA0001382128280E79EE09183808364838FEF7C
:104AB0008583468327830087E186C2861386148612
:104AC00015861686178620E041E060E1CF010F9140
:104AD000EF90CF905BCF41E016DF81E090E008954A
:104AE0001F920F920FB60F9211242F933F938F9323
:104AF0009F93AF93BF938091D4109091D510A091C4
:104B0000D610B091D7103091D31023E0230F2D375A
:104B100020F40196A11DB11D05C026E8230F0296C1
:104B2000A11DB11D2093D3108093D4109093D51064
:104B3000A093D610B093D7108091D8109091D9102F
:104B4000A091DA10B091DB100196A11DB11D8093E8
:104B5000D8109093D910A093DA10B093DB10BF91C6
:104B6000AF919F918F913F912F910F900FBE0F901A
:104B70001F9018952FB7F8946091D4107091D510AC
:104B80008091D6109091D7102FBF08953FB7F89419
:104B90008091D8109091D910A091DA10B091DB10CB
:104BA00026B5A89B05C02F3F19F00196A11DB11D88
:104BB0003FBF6627782F892F9A2F620F711D811DA5
:104BC000911D42E0660F771F881F991F4A95D1F704
:104BD00008958F929F92AF92BF92CF92DF92EF9201
:104BE000FF926B017C01D2DF4B015C01C114D10447
:104BF000E104F104E9F00E943F2EC8DF6819790949
:104C00008A099B09683E73408105910578F321E08C
:104C1000C21AD108E108F10888EE880E83E0981ED8
:104C2000A11CB11CC114D104E104F10431F7DECFA1
:104C3000FF90EF90DF90CF90BF90AF909F908F90BC
:104C400008958230910538F0880F991F880F991FB9
:104C500005970197F1F70895789484B5826084BD33
:104C600084B5816084BD85B5826085BD85B5816070
:104C700085BDEEE6F0E0808181608083E1E8F0E0D0
:104C80001082808182608083808181608083E0E8FF
:104C9000F0E0808181608083E1EBF0E080818460DE
:104CA0008083E0EBF0E0808181608083E1E9F0E0E7
:104CB000808182608083808181608083E0E9F0E090
:104CC000808181608083E1EAF0E08081826080837E
:104CD000808181608083E0EAF0E080818160808370
:104CE000E1E2F1E080818260808380818160808365
:104CF000E0E2F1E0808181608083EAE7F0E080819A
:104D000084608083808182608083808181608083F1
:104D10008081806880831092C100089590E0FC013A
:104D20003197E231F10508F04CC0EE58FF4F0C947A
:104D3000A231809180008F7703C0809180008F7DA9
:104D400080938000089580918000877FF9CF84B59B
:104D50008F7702C084B58F7D84BD08958091B000A7
:104D60008F7703C08091B0008F7D8093B00008954D
:104D7000809190008F7707C0809190008F7D03C055
:104D800080919000877F8093900008958091A0008B
:104D90008F7707C08091A0008F7D03C08091A00015
:104DA000877F8093A0000895809120018F7707C0AE
:104DB000809120018F7D03C080912001877F8093A7
:104DC00020010895CF93DF9390E0FC01EC55FE4F56
:104DD0002491FC01E651FE4F8491882349F190E033
:104DE000880F991FFC01EC59FD4FA591B491865B8A
:104DF0009D4FFC01C591D4919FB7611108C0F894F3
:104E00008C91209582238C93888182230AC0623002
:104E100051F4F8948C91322F309583238C938881B0
:104E2000822B888304C0F8948C91822B8C939FBF33
:104E3000DF91CF9108950F931F93CF93DF931F922C
:104E4000CDB7DEB7282F30E0F901E25AFE4F84914A
:104E5000F901EC55FE4F1491F901E651FE4F049112
:104E60000023C1F0882319F0698358DF6981E02F9E
:104E7000F0E0EE0FFF1FE65BFD4FA591B4919FB7E9
:104E8000F8948C91611103C01095812301C0812B8E
:104E90008C939FBF0F90DF91CF911F910F91089539
:104EA000CF93DF93282F30E0F901E25AFE4F84912F
:104EB000F901EC55FE4FD491F901E651FE4FC49132
:104EC000CC2389F081112ADFEC2FF0E0EE0FFF1FD9
:104ED000E05DFD4FA591B4912C912D2381E090E0F0
:104EE00021F480E002C080E090E0DF91CF9108954E
:104EF000FC01818D228D90E0805C9F4F821B910987
:104F00008F7399270895FC01918D828D981731F048
:104F1000828DE80FF11D858D90E008958FEF9FEF52
:104F20000895FC01918D828D981761F0828DDF01CB
:104F3000A80FB11D5D968C91928D9F5F9F73928F8C
:104F400090E008958FEF9FEF089588E499E2892B10
:104F500039F080E090E0892B19F09AD1811125C0B9
:104F600080E090E0892B41F080E090E0892B21F0F7
:104F70000E94000081111CC080E090E0892B41F06C
:104F800080E090E0892B21F00E940000811113C085
:104F900080E090E0892BA1F080E090E0892B81F007
:104FA0000E94000081110AC008950E940000D8CF1D
:104FB0000E940000E1CF0E940000EACF0C940000A4
:104FC0000895FC01848DDF01A80FB11DA35ABF4FC6
:104FD0002C91848D90E001968F739927848FA689F8
:104FE000B7892C93A089B1898C9180648C93938D1F
:104FF000848D981306C00288F389E02D80818F7D0F
:1050000080830895CF93DF93EC01888D8823C1F0CE
:10501000EA89FB89808185FD05C0A889B9898C91C1
:1050200086FD0EC00FB607FCF5CF808185FFF2CF5D
:10503000A889B9898C9185FFEDCFCE01C2DFE8CF79
:10504000DF91CF910895CF92DF92FF920F931F933C
:10505000CF93DF931F92CDB7DEB76C0181E0D6010D
:1050600058968C9358975B969C915B975C968C9125
:105070005C97981307C05096ED91FC9151978081F1
:1050800085FD2DC0F601038D10E00F5F1F4F0F73DC
:105090001127F02EF601848DF81210C00FB607FC10
:1050A000F9CFD6015096ED91FC915197808185FF03
:1050B000F1CFC601698385DF6981ECCF838DE80F6D
:1050C000F11DE35AFF4F6083D6015B960C935B970B
:1050D0005296ED91FC915397808180620CC0D6016D
:1050E0005696ED91FC91579760835096ED91FC9107
:1050F000519780818064808381E090E00F90DF9100
:10510000CF911F910F91FF90DF90CF900895BF92A4
:10511000CF92DF92EF92FF92CF93DF93EC016A017F
:105120007B01B22EE889F98982E08083411581EE06
:10513000580761057105A1F060E079E08DE390E02A
:10514000A70196010E94643121503109410951099A
:105150005695479537952795211580E1380798F0A2
:10516000E889F989108260E874E88EE190E0A7018F
:1051700096010E9464312150310941095109569527
:10518000479537952795EC85FD853083EE85FF851E
:105190002083188EEC89FD89B082EA89FB898081A1
:1051A00080618083EA89FB89808188608083EA89C5
:1051B000FB89808180688083EA89FB8980818F7D7B
:1051C0008083DF91CF91FF90EF90DF90CF90BF90E1
:1051D00008951F920F920FB60F9211240BB60F92E3
:1051E0002F938F939F93EF93FF93E091EC10F091A7
:1051F000ED108081E091F210F091F31082FD12C069
:1052000090818091F5108F5F8F732091F610821737
:1052100051F0E091F510F0E0E452FF4E958F80934D
:10522000F51001C08081FF91EF919F918F912F9197
:105230000F900BBE0F900FBE0F901F9018951F92EE
:105240000F920FB60F9211240BB60F922F933F932C
:105250004F935F936F937F938F939F93AF93BF937E
:10526000EF93FF938CED90E1ACDEFF91EF91BF9156
:10527000AF919F918F917F916F915F914F913F91EE
:105280002F910F900BBE0F900FBE0F901F9018958F
:105290008CED90E12DDE21E0892B09F420E0822FB6
:1052A00008951092DF101092DE1088EE93E0A0E0D7
:1052B000B0E08093E0109093E110A093E210B093DF
:1052C000E31088E79EE09093DD108093DC1085EC7E
:1052D00090E09093E9108093E81084EC90E0909334
:1052E000EB108093EA1080EC90E09093ED108093A7
:1052F000EC1081EC90E09093EF108093EE1082EC34
:1053000090E09093F1108093F01086EC90E09093F1
:10531000F3108093F2101092F5101092F610109284
:10532000F7101092F8100895CF92DF92EF92FF924B
:105330000F931F93CF93DF937C016A01EB0100E091
:1053400010E00C151D0571F06991D701ED91FC91EC
:105350000190F081E02DC7011995892B19F00F5F9D
:105360001F4FEFCFC801DF91CF911F910F91FF9099
:10537000EF90DF90CF9008956115710581F0DB010A
:105380000D900020E9F7AD0141505109461B570B24
:10539000DC01ED91FC910280F381E02D199480E015
:1053A00090E00895DC01ED91FC91DB0114964D91A4
:1053B0005C9115976D917C910280F381E02D199499
:1053C000DBCFDC01ED91FC910190F081E02D19948F
:1053D00064E87EE0D1CF0F931F93CF93DF93EC016E
:1053E000E1DF8C01CE01F4DF800F911FDF91CF91BF
:1053F0001F910F9108950F931F93CF93DF93EC01AB
:10540000BBDF8C01CE01E4DF800F911FDF91CF91D4
:105410001F910F9108958F929F92AF92BF92DF924A
:10542000EF92FF920F931F93CF93DF93CDB7DEB729
:10543000A1970FB6F894DEBF0FBECDBF7C01F42F4D
:10544000D52ECB0119A2223008F42AE08E010F5D7F
:105450001F4F822E912CA12CB12C6F2F7D2DA501D9
:10546000940132D7F22FD32ECA01015011096A30AC
:1054700014F4E0E301C0E7E3E60FD801EC93232B3B
:10548000242B252B51F7B801C70176DFA1960FB663
:10549000F894DEBF0FBECDBFDF91CF911F910F916A
:1054A000FF90EF90DF90BF90AF909F908F90089506
:1054B000CF92DF92EF92FF920F931F93CF93DF93E0
:1054C000EC016A017B012115310579F4E881F9814C
:1054D0000190F081E02D642FDF91CF911F910F910A
:1054E000FF90EF90DF90CF9019942A303105D9F4D6
:1054F00077FF18C06DE265DF8C0144275527BA019C
:105500004C195D096E097F092AE0CE0184DF800F06
:10551000911FDF91CF911F910F91FF90EF90DF903E
:10552000CF9008952AE0B701A601CE01DF91CF9177
:105530001F910F91FF90EF90DF90CF906CCF9A0169
:10554000AB01662757FD6095762FB2CF0F931F935F
:10555000CF93DF93EC019A01AB01662757FD60956D
:10556000762FA6DF8C01CE0133DF800F911FDF91F4
:10557000CF911F910F9108952115310541F4DC0160
:10558000ED91FC910190F081E02D642F199443CFAF
:105590000F931F93CF93DF93EC01EEDF8C01CE01CD
:1055A00017DF800F911FDF91CF911F910F91089509
:1055B0004F925F926F927F928F929F92AF92BF9223
:1055C000CF92DF92EF92FF920F931F93CF93DF93CF
:1055D000EC016A017B01B22E9A01AB01C701B60151
:1055E0002CD6882319F067E87EE024C02601370115
:1055F000E89477F82FEF3FEF4FE75FE7C301B20181
:105600001CD681110CC02FEF3FEF4FE75FE7C301BE
:10561000B201D1D318161CF46BE87EE00BC02FEF5B
:105620003FEF4FE75FE4C701B60154D51816A4F465
:105630006FE87EE0CE01DF91CF911F910F91FF9037
:10564000EF90DF90CF90BF90AF909F908F907F9022
:105650006F905F904F9090CE2FEF3FEF4FE75FEC52
:10566000C701B601A8D387FDE3CF20E030E0A90150
:10567000C701B601A0D387FF09C06DE2CE01A1DE4C
:105680008C01F7FAF094F7F8F09402C000E010E013
:10569000A12C60E070E080E09FE3AB1439F020E0E3
:1056A00030E040E251E48BD3A394F7CF9B01AC01EF
:1056B000C701B601F4D26B017C01EED32B013C0192
:1056C00017D49B01AC01C701B601E8D26B017C0184
:1056D0002AE0B301A201CE019EDE080F191FBB20F4
:1056E00031F068E07CE0CE0147DE080F191F7B2C0B
:1056F000772019F120E030E040E251E4C701B60123
:10570000F4D46B017C01C3D34B01AA2497FCA09471
:10571000BA2C2AE030E0B501A401CE01C9DE080FA1
:10572000191FC501B401E6D39B01AC01C701B60145
:10573000B5D26B017C017A94DBCFC801DF91CF91A8
:105740001F910F91FF90EF90DF90CF90BF90AF909F
:105750009F908F907F906F905F904F90089528CF8B
:105760000F931F93CF93DF93EC0122DF8C01CE01C7
:105770002FDE800F911FDF91CF911F910F91089520
:105780000F931F93CF93DF93EC01F4D96887798748
:105790008A879B87E881F9810680F781E02DCE0119
:1057A000199597FF14C0E6D9088519852A853B8588
:1057B000601B710B820B930B0C811D812E813F812D
:1057C000601771078207930728F38FEF9FEFDF9130
:1057D000CF911F910F9108950F931F93CF93DF9354
:1057E000EC018B0166E87EE0BAD0C801C9DF97FD05
:1057F00004C0682FCE018ED1F8CFCE01DF91CF91BA
:105800001F910F9108954F925F926F927F92AF9286
:10581000BF92CF92DF92EF92FF920F931F93CF939D
:10582000DF93CDB7DEB729013A01621B730B840BFE
:10583000950B2A893B894C895D892A193B094C09BA
:105840005D092A8B3B8B4C8B5D8B9B01AC016A897C
:105850007B898C899D890AD5E418F5080609170902
:10586000A801970153D52A0D3B1D4C1D5D1DCA0192
:10587000B901DF91CF911F910F91FF90EF90DF90D1
:10588000CF90BF90AF907F906F905F904F900895B2
:10589000FC018081918125C6CF93DF93EC01888143
:1058A0009981009709F01DD6198218821D821C82E9
:1058B0001B821A82DF91CF9108950F931F93CF938C
:1058C000DF93EC018B016F5F7F4F8881998198D6C0
:1058D000009731F0998388831B830A8381E001C09C
:1058E00080E0DF91CF911F910F910895CF93DF93C7
:1058F000EC0188819981892B29F08A819B81861707
:10590000970758F4CE01D9DF882341F08C819D811F
:10591000892B19F4E881F981108281E0DF91CF9120
:105920000895EF92FF920F931F93CF93DF93EC01B3
:105930007B018A01BA01DADF811103C0CE01ACDF3D
:1059400006C01D830C83B7018881998175D7CE016C
:10595000DF91CF911F910F91FF90EF900895FC017F
:1059600011821082138212821582148261157105D0
:1059700051F0FB0101900020E9F7AF0141505109BE
:10598000461B570BCECF08950F931F93CF93DF93F2
:105990008C01EB01FC0180819181009789F04281AB
:1059A00053812C813D814217530748F068817981EA
:1059B00043D78C819D81F8019583848312C091D552
:1059C00088819981F801918380838A819B81938367
:1059D00082838C819D8195838483198218821B82A6
:1059E0001A821D821C82DF91CF911F910F91089521
:1059F000CF93DF93EC01FB018617970751F060818D
:105A000071816115710521F0448155818ADF01C0E2
:105A100043DFCE01DF91CF910895FC011182108206
:105A20001382128215821482E3CFCF93DF93EC01AD
:105A30008617970709F0A8DFCE01DF91CF9108956F
:105A4000CF93DF93EC016115710559F0FB010190D3
:105A50000020E9F7AF0141505109461B570B61DFA8
:105A600001C01ADFCE01DF91CF9108950F931F93EC
:105A7000CF93DF93CDB7DEB762970FB6F894DEBF52
:105A80000FBECDBF8C01CB01F801118210821382B1
:105A900012821582148250E0BE016F5F7F4FD3D611
:105AA000BE016F5F7F4FC801CBDF62960FB6F894DF
:105AB000DEBF0FBECDBFDF91CF911F910F91089533
:105AC000EF92FF920F931F93CF93DF93EC017B0133
:105AD0000C811D816115710511F480E014C0411520
